{
  "_format": "hh-sol-artifact-1",
  "contractName": "MemoryAnchor",
  "sourceName": "contracts/MemoryAnchor.sol",
  "abi": [
    {
      "inputs": [
        {
          "internalType": "address",
          "name": "_claudeMiniSBT",
          "type": "address"
        }
      ],
      "stateMutability": "nonpayable",
      "type": "constructor"
    },
    {
      "anonymous": false,
      "inputs": [
        {
          "indexed": true,
          "internalType": "uint256",
          "name": "tokenId",
          "type": "uint256"
        },
        {
          "indexed": true,
          "internalType": "uint256",
          "name": "memoryId",
          "type": "uint256"
        },
        {
          "indexed": false,
          "internalType": "bytes32",
          "name": "memoryHash",
          "type": "bytes32"
        },
        {
          "indexed": false,
          "internalType": "string",
          "name": "memoryType",
          "type": "string"
        },
        {
          "indexed": false,
          "internalType": "string",
          "name": "category",
          "type": "string"
        }
      ],
      "name": "MemoryAnchored",
      "type": "event"
    },
    {
      "anonymous": false,
      "inputs": [
        {
          "indexed": true,
          "internalType": "uint256",
          "name": "memoryId",
          "type": "uint256"
        },
        {
          "indexed": false,
          "internalType": "bool",
          "name": "isValid",
          "type": "bool"
        }
      ],
      "name": "MemoryVerified",
      "type": "event"
    },
    {
      "inputs": [
        {
          "internalType": "string",
          "name": "memoryData",
          "type": "string"
        },
        {
          "internalType": "string",
          "name": "memoryType",
          "type": "string"
        },
        {
          "internalType": "string",
          "name": "category",
          "type": "string"
        }
      ],
      "name": "anchorMemory",
      "outputs": [
        {
          "internalType": "uint256",
          "name": "",
          "type": "uint256"
        }
      ],
      "stateMutability": "nonpayable",
      "type": "function"
    },
    {
      "inputs": [],
      "name": "claudeMiniSBT",
      "outputs": [
        {
          "internalType": "contract ClaudeMiniSBT",
          "name": "",
          "type": "address"
        }
      ],
      "stateMutability": "view",
      "type": "function"
    },
    {
      "inputs": [
        {
          "internalType": "uint256",
          "name": "tokenId",
          "type": "uint256"
        },
        {
          "internalType": "string",
          "name": "memoryType",
          "type": "string"
        }
      ],
      "name": "getMemoriesByType",
      "outputs": [
        {
          "internalType": "uint256[]",
          "name": "",
          "type": "uint256[]"
        }
      ],
      "stateMutability": "view",
      "type": "function"
    },
    {
      "inputs": [
        {
          "internalType": "uint256",
          "name": "tokenId",
          "type": "uint256"
        }
      ],
      "name": "getMemoryCount",
      "outputs": [
        {
          "internalType": "uint256",
          "name": "",
          "type": "uint256"
        }
      ],
      "stateMutability": "view",
      "type": "function"
    },
    {
      "inputs": [
        {
          "internalType": "uint256",
          "name": "tokenId",
          "type": "uint256"
        }
      ],
      "name": "getTokenMemories",
      "outputs": [
        {
          "internalType": "uint256[]",
          "name": "",
          "type": "uint256[]"
        }
      ],
      "stateMutability": "view",
      "type": "function"
    },
    {
      "inputs": [
        {
          "internalType": "uint256",
          "name": "",
          "type": "uint256"
        }
      ],
      "name": "memories",
      "outputs": [
        {
          "internalType": "bytes32",
          "name": "memoryHash",
          "type": "bytes32"
        },
        {
          "internalType": "uint256",
          "name": "timestamp",
          "type": "uint256"
        },
        {
          "internalType": "string",
          "name": "memoryType",
          "type": "string"
        },
        {
          "internalType": "string",
          "name": "category",
          "type": "string"
        },
        {
          "internalType": "bool",
          "name": "exists",
          "type": "bool"
        }
      ],
      "stateMutability": "view",
      "type": "function"
    },
    {
      "inputs": [],
      "name": "memoryCounter",
      "outputs": [
        {
          "internalType": "uint256",
          "name": "",
          "type": "uint256"
        }
      ],
      "stateMutability": "view",
      "type": "function"
    },
    {
      "inputs": [
        {
          "internalType": "uint256",
          "name": "",
          "type": "uint256"
        },
        {
          "internalType": "uint256",
          "name": "",
          "type": "uint256"
        }
      ],
      "name": "tokenMemories",
      "outputs": [
        {
          "internalType": "uint256",
          "name": "",
          "type": "uint256"
        }
      ],
      "stateMutability": "view",
      "type": "function"
    },
    {
      "inputs": [
        {
          "internalType": "uint256",
          "name": "memoryId",
          "type": "uint256"
        },
        {
          "internalType": "string",
          "name": "memoryData",
          "type": "string"
        },
        {
          "internalType": "address",
          "name": "owner",
          "type": "address"
        },
        {
          "internalType": "uint256",
          "name": "timestamp",
          "type": "uint256"
        }
      ],
      "name": "verifyMemory",
      "outputs": [
        {
          "internalType": "bool",
          "name": "",
          "type": "bool"
        }
      ],
      "stateMutability": "view",
      "type": "function"
    }
  ],
  "bytecode": "0x608060405234801561001057600080fd5b50604051610dff380380610dff83398101604081905261002f91610054565b600080546001600160a01b0319166001600160a01b0392909216919091179055610084565b60006020828403121561006657600080fd5b81516001600160a01b038116811461007d57600080fd5b9392505050565b610d6c806100936000396000f3fe608060405234801561001057600080fd5b50600436106100935760003560e01c806361ac6b0d1161006657806361ac6b0d1461012657806396e8385f14610149578063c66f2c4e14610174578063d4fe401914610187578063f7ddb31d1461019a57600080fd5b80630948ba6314610098578063214e6b6c146100c15780634971ff00146100ef578063608e6ba214610113575b600080fd5b6100ab6100a63660046107c0565b6101a3565b6040516100b891906107d9565b60405180910390f35b6100e16100cf3660046107c0565b60009081526001602052604090205490565b6040519081526020016100b8565b6101026100fd3660046107c0565b610205565b6040516100b8959493929190610861565b6100e16101213660046108a7565b610349565b61013961013436600461096c565b61037a565b60405190151581526020016100b8565b60005461015c906001600160a01b031681565b6040516001600160a01b0390911681526020016100b8565b6100e16101823660046109d9565b610421565b6100ab610195366004610a61565b6105dd565b6100e160035481565b6000818152600160209081526040918290208054835181840281018401909452808452606093928301828280156101f957602002820191906000526020600020905b8154815260200190600101908083116101e5575b50505050509050919050565b60026020819052600091825260409091208054600182015492820180549193929161022f90610aa8565b80601f016020809104026020016040519081016040528092919081815260200182805461025b90610aa8565b80156102a85780601f1061027d576101008083540402835291602001916102a8565b820191906000526020600020905b81548152906001019060200180831161028b57829003601f168201915b5050505050908060030180546102bd90610aa8565b80601f01602080910402602001604051908101604052809291908181526020018280546102e990610aa8565b80156103365780601f1061030b57610100808354040283529160200191610336565b820191906000526020600020905b81548152906001019060200180831161031957829003601f168201915b5050506004909301549192505060ff1685565b6001602052816000526040600020818154811061036557600080fd5b90600052602060002001600091509150505481565b60008481526002602052604081206004015460ff166103d75760405162461bcd60e51b815260206004820152601560248201527413595b5bdc9e48191bd95cc81b9bdd08195e1a5cdd605a1b604482015260640160405180910390fd5b6000848484886040516020016103f09493929190610ae2565b60408051601f1981840301815291815281516020928301206000898152600290935291205414915050949350505050565b60008054604051634c0f8bf560e11b815233600482015282916001600160a01b03169063981f17ea90602401602060405180830381865afa15801561046a573d6000803e3d6000fd5b505050506040513d601f19601f8201168201806040525081019061048e9190610b26565b905060008533426003546040516020016104ab9493929190610ae2565b6040516020818303038152906040528051906020012090506000600360008154809291906104d890610b3f565b9190505590506040518060a001604052808381526020014281526020018781526020018681526020016001151581525060026000838152602001908152602001600020600082015181600001556020820151816001015560408201518160020190816105449190610bb5565b50606082015160038201906105599082610bb5565b50608091909101516004909101805460ff1916911515919091179055600083815260016020818152604080842080549384018155845292200182905551819084907f8aa35f3ee1f061c1442fa8e540b02ac6b8f84315b12030d0411fdfa222283a1a906105cb9086908b908b90610c75565b60405180910390a39695505050505050565b600082815260016020908152604080832080548251818502810185019093528083526060949383018282801561063257602002820191906000526020600020905b81548152602001906001019080831161061e575b505050505090506000805b82518110156106b75784805190602001206002600085848151811061066457610664610caa565b6020026020010151815260200190815260200160002060020160405161068a9190610cc0565b6040518091039020036106a557816106a181610b3f565b9250505b806106af81610b3f565b91505061063d565b5060008167ffffffffffffffff8111156106d3576106d36108c9565b6040519080825280602002602001820160405280156106fc578160200160208202803683370190505b5090506000805b84518110156107b45786805190602001206002600087848151811061072a5761072a610caa565b602002602001015181526020019081526020016000206002016040516107509190610cc0565b6040518091039020036107a25784818151811061076f5761076f610caa565b602002602001015183838061078390610b3f565b94508151811061079557610795610caa565b6020026020010181815250505b806107ac81610b3f565b915050610703565b50909695505050505050565b6000602082840312156107d257600080fd5b5035919050565b6020808252825182820181905260009190848201906040850190845b818110156107b4578351835292840192918401916001016107f5565b60005b8381101561082c578181015183820152602001610814565b50506000910152565b6000815180845261084d816020860160208601610811565b601f01601f19169290920160200192915050565b85815284602082015260a06040820152600061088060a0830186610835565b82810360608401526108928186610835565b91505082151560808301529695505050505050565b600080604083850312156108ba57600080fd5b50508035926020909101359150565b634e487b7160e01b600052604160045260246000fd5b600082601f8301126108f057600080fd5b813567ffffffffffffffff8082111561090b5761090b6108c9565b604051601f8301601f19908116603f01168101908282118183101715610933576109336108c9565b8160405283815286602085880101111561094c57600080fd5b836020870160208301376000602085830101528094505050505092915050565b6000806000806080858703121561098257600080fd5b84359350602085013567ffffffffffffffff8111156109a057600080fd5b6109ac878288016108df565b93505060408501356001600160a01b03811681146109c957600080fd5b9396929550929360600135925050565b6000806000606084860312156109ee57600080fd5b833567ffffffffffffffff80821115610a0657600080fd5b610a12878388016108df565b94506020860135915080821115610a2857600080fd5b610a34878388016108df565b93506040860135915080821115610a4a57600080fd5b50610a57868287016108df565b9150509250925092565b60008060408385031215610a7457600080fd5b82359150602083013567ffffffffffffffff811115610a9257600080fd5b610a9e858286016108df565b9150509250929050565b600181811c90821680610abc57607f821691505b602082108103610adc57634e487b7160e01b600052602260045260246000fd5b50919050565b60008551610af4818460208a01610811565b60609590951b6bffffffffffffffffffffffff1916919094019081526014810192909252603482015260540192915050565b600060208284031215610b3857600080fd5b5051919050565b600060018201610b5f57634e487b7160e01b600052601160045260246000fd5b5060010190565b601f821115610bb057600081815260208120601f850160051c81016020861015610b8d5750805b601f850160051c820191505b81811015610bac57828155600101610b99565b5050505b505050565b815167ffffffffffffffff811115610bcf57610bcf6108c9565b610be381610bdd8454610aa8565b84610b66565b602080601f831160018114610c185760008415610c005750858301515b600019600386901b1c1916600185901b178555610bac565b600085815260208120601f198616915b82811015610c4757888601518255948401946001909101908401610c28565b5085821015610c655787850151600019600388901b60f8161c191681555b5050505050600190811b01905550565b838152606060208201526000610c8e6060830185610835565b8281036040840152610ca08185610835565b9695505050505050565b634e487b7160e01b600052603260045260246000fd5b6000808354610cce81610aa8565b60018281168015610ce65760018114610cfb57610d2a565b60ff1984168752821515830287019450610d2a565b8760005260208060002060005b85811015610d215781548a820152908401908201610d08565b50505082870194505b5092969550505050505056fea26469706673582212207470d674cfce9f0a16d8ad86589100b29fc8d974e02089219ed9875b9d637deb64736f6c63430008140033",
  "linkReferences": {},
  "deployedLinkReferences": {}
}