{
  "_format": "hh-sol-artifact-1",
  "contractName": "GoalDAO",
  "sourceName": "contracts/GoalDAO.sol",
  "abi": [
    {
      "inputs": [
        {
          "internalType": "address",
          "name": "_claudeMiniSBT",
          "type": "address"
        }
      ],
      "stateMutability": "nonpayable",
      "type": "constructor"
    },
    {
      "anonymous": false,
      "inputs": [
        {
          "indexed": true,
          "internalType": "uint256",
          "name": "goalId",
          "type": "uint256"
        }
      ],
      "name": "GoalApproved",
      "type": "event"
    },
    {
      "anonymous": false,
      "inputs": [
        {
          "indexed": true,
          "internalType": "uint256",
          "name": "goalId",
          "type": "uint256"
        },
        {
          "indexed": false,
          "internalType": "string",
          "name": "title",
          "type": "string"
        },
        {
          "indexed": false,
          "internalType": "address",
          "name": "proposer",
          "type": "address"
        }
      ],
      "name": "GoalProposed",
      "type": "event"
    },
    {
      "anonymous": false,
      "inputs": [
        {
          "indexed": true,
          "internalType": "uint256",
          "name": "proposalId",
          "type": "uint256"
        },
        {
          "indexed": false,
          "internalType": "string",
          "name": "proposalType",
          "type": "string"
        },
        {
          "indexed": false,
          "internalType": "address",
          "name": "proposer",
          "type": "address"
        }
      ],
      "name": "ProposalCreated",
      "type": "event"
    },
    {
      "anonymous": false,
      "inputs": [
        {
          "indexed": true,
          "internalType": "uint256",
          "name": "proposalId",
          "type": "uint256"
        },
        {
          "indexed": false,
          "internalType": "bool",
          "name": "approved",
          "type": "bool"
        }
      ],
      "name": "ProposalExecuted",
      "type": "event"
    },
    {
      "anonymous": false,
      "inputs": [
        {
          "indexed": true,
          "internalType": "uint256",
          "name": "proposalId",
          "type": "uint256"
        },
        {
          "indexed": false,
          "internalType": "address",
          "name": "voter",
          "type": "address"
        },
        {
          "indexed": false,
          "internalType": "bool",
          "name": "support",
          "type": "bool"
        }
      ],
      "name": "Voted",
      "type": "event"
    },
    {
      "inputs": [],
      "name": "QUORUM_PERCENTAGE",
      "outputs": [
        {
          "internalType": "uint256",
          "name": "",
          "type": "uint256"
        }
      ],
      "stateMutability": "view",
      "type": "function"
    },
    {
      "inputs": [],
      "name": "VOTING_PERIOD",
      "outputs": [
        {
          "internalType": "uint256",
          "name": "",
          "type": "uint256"
        }
      ],
      "stateMutability": "view",
      "type": "function"
    },
    {
      "inputs": [],
      "name": "claudeMiniSBT",
      "outputs": [
        {
          "internalType": "contract ClaudeMiniSBT",
          "name": "",
          "type": "address"
        }
      ],
      "stateMutability": "view",
      "type": "function"
    },
    {
      "inputs": [
        {
          "internalType": "string",
          "name": "proposalType",
          "type": "string"
        },
        {
          "internalType": "uint256",
          "name": "targetGoalId",
          "type": "uint256"
        },
        {
          "internalType": "string",
          "name": "newTitle",
          "type": "string"
        },
        {
          "internalType": "string",
          "name": "newDescription",
          "type": "string"
        }
      ],
      "name": "createProposal",
      "outputs": [
        {
          "internalType": "uint256",
          "name": "",
          "type": "uint256"
        }
      ],
      "stateMutability": "nonpayable",
      "type": "function"
    },
    {
      "inputs": [
        {
          "internalType": "uint256",
          "name": "goalId",
          "type": "uint256"
        }
      ],
      "name": "executeGoal",
      "outputs": [],
      "stateMutability": "nonpayable",
      "type": "function"
    },
    {
      "inputs": [
        {
          "internalType": "uint256",
          "name": "proposalId",
          "type": "uint256"
        }
      ],
      "name": "executeProposal",
      "outputs": [],
      "stateMutability": "nonpayable",
      "type": "function"
    },
    {
      "inputs": [],
      "name": "getActiveGoals",
      "outputs": [
        {
          "internalType": "uint256[]",
          "name": "",
          "type": "uint256[]"
        }
      ],
      "stateMutability": "view",
      "type": "function"
    },
    {
      "inputs": [],
      "name": "goalCounter",
      "outputs": [
        {
          "internalType": "uint256",
          "name": "",
          "type": "uint256"
        }
      ],
      "stateMutability": "view",
      "type": "function"
    },
    {
      "inputs": [
        {
          "internalType": "uint256",
          "name": "",
          "type": "uint256"
        }
      ],
      "name": "goals",
      "outputs": [
        {
          "internalType": "uint256",
          "name": "id",
          "type": "uint256"
        },
        {
          "internalType": "string",
          "name": "title",
          "type": "string"
        },
        {
          "internalType": "string",
          "name": "description",
          "type": "string"
        },
        {
          "internalType": "address",
          "name": "proposer",
          "type": "address"
        },
        {
          "internalType": "uint256",
          "name": "proposedAt",
          "type": "uint256"
        },
        {
          "internalType": "uint256",
          "name": "votingDeadline",
          "type": "uint256"
        },
        {
          "internalType": "uint256",
          "name": "yesVotes",
          "type": "uint256"
        },
        {
          "internalType": "uint256",
          "name": "noVotes",
          "type": "uint256"
        },
        {
          "internalType": "bool",
          "name": "executed",
          "type": "bool"
        },
        {
          "internalType": "bool",
          "name": "approved",
          "type": "bool"
        }
      ],
      "stateMutability": "view",
      "type": "function"
    },
    {
      "inputs": [
        {
          "internalType": "uint256",
          "name": "goalId",
          "type": "uint256"
        },
        {
          "internalType": "address",
          "name": "voter",
          "type": "address"
        }
      ],
      "name": "hasVotedOnGoal",
      "outputs": [
        {
          "internalType": "bool",
          "name": "",
          "type": "bool"
        }
      ],
      "stateMutability": "view",
      "type": "function"
    },
    {
      "inputs": [
        {
          "internalType": "uint256",
          "name": "proposalId",
          "type": "uint256"
        },
        {
          "internalType": "address",
          "name": "voter",
          "type": "address"
        }
      ],
      "name": "hasVotedOnProposal",
      "outputs": [
        {
          "internalType": "bool",
          "name": "",
          "type": "bool"
        }
      ],
      "stateMutability": "view",
      "type": "function"
    },
    {
      "inputs": [],
      "name": "proposalCounter",
      "outputs": [
        {
          "internalType": "uint256",
          "name": "",
          "type": "uint256"
        }
      ],
      "stateMutability": "view",
      "type": "function"
    },
    {
      "inputs": [
        {
          "internalType": "uint256",
          "name": "",
          "type": "uint256"
        }
      ],
      "name": "proposals",
      "outputs": [
        {
          "internalType": "uint256",
          "name": "id",
          "type": "uint256"
        },
        {
          "internalType": "string",
          "name": "proposalType",
          "type": "string"
        },
        {
          "internalType": "uint256",
          "name": "targetGoalId",
          "type": "uint256"
        },
        {
          "internalType": "string",
          "name": "newTitle",
          "type": "string"
        },
        {
          "internalType": "string",
          "name": "newDescription",
          "type": "string"
        },
        {
          "internalType": "address",
          "name": "proposer",
          "type": "address"
        },
        {
          "internalType": "uint256",
          "name": "proposedAt",
          "type": "uint256"
        },
        {
          "internalType": "uint256",
          "name": "votingDeadline",
          "type": "uint256"
        },
        {
          "internalType": "uint256",
          "name": "yesVotes",
          "type": "uint256"
        },
        {
          "internalType": "uint256",
          "name": "noVotes",
          "type": "uint256"
        },
        {
          "internalType": "bool",
          "name": "executed",
          "type": "bool"
        }
      ],
      "stateMutability": "view",
      "type": "function"
    },
    {
      "inputs": [
        {
          "internalType": "string",
          "name": "title",
          "type": "string"
        },
        {
          "internalType": "string",
          "name": "description",
          "type": "string"
        }
      ],
      "name": "proposeGoal",
      "outputs": [
        {
          "internalType": "uint256",
          "name": "",
          "type": "uint256"
        }
      ],
      "stateMutability": "nonpayable",
      "type": "function"
    },
    {
      "inputs": [
        {
          "internalType": "uint256",
          "name": "goalId",
          "type": "uint256"
        },
        {
          "internalType": "bool",
          "name": "support",
          "type": "bool"
        }
      ],
      "name": "voteOnGoal",
      "outputs": [],
      "stateMutability": "nonpayable",
      "type": "function"
    },
    {
      "inputs": [
        {
          "internalType": "uint256",
          "name": "proposalId",
          "type": "uint256"
        },
        {
          "internalType": "bool",
          "name": "support",
          "type": "bool"
        }
      ],
      "name": "voteOnProposal",
      "outputs": [],
      "stateMutability": "nonpayable",
      "type": "function"
    }
  ],
  "bytecode": "0x608060405234801561001057600080fd5b50604051611c2a380380611c2a83398101604081905261002f91610054565b600080546001600160a01b0319166001600160a01b0392909216919091179055610084565b60006020828403121561006657600080fd5b81516001600160a01b038116811461007d57600080fd5b9392505050565b611b97806100936000396000f3fe608060405234801561001057600080fd5b50600436106101005760003560e01c80636c4160bb11610097578063ba477d6c11610066578063ba477d6c14610270578063ee8a7c1514610283578063f65e93b81461028b578063f9e9ad391461029e57600080fd5b80636c4160bb1461021357806389d38a6f1461022857806396e8385f1461023b578063b1610d7e1461026657600080fd5b806323b309c0116100d357806323b309c014610177578063398e3a6e1461018a578063600303d8146101ad57806361449ca2146101ea57600080fd5b8063013cf08b146101055780630c0512e9146101385780630d61b5191461014f5780631614665c14610164575b600080fd5b610118610113366004611406565b6102a7565b60405161012f9b9a99989796959493929190611465565b60405180910390f35b61014160045481565b60405190815260200161012f565b61016261015d366004611406565b6104a2565b005b6101626101723660046114f1565b610739565b6101626101853660046114f1565b61096b565b61019d610198366004611526565b610b48565b604051901515815260200161012f565b61019d6101bb366004611526565b60008281526002602090815260408083206001600160a01b0385168452600b0190915290205460ff1692915050565b6101fd6101f8366004611406565b610b78565b60405161012f9a99989796959493929190611557565b61021b610ce7565b60405161012f91906115cd565b6101416102363660046116b4565b610e2b565b60005461024e906001600160a01b031681565b6040516001600160a01b03909116815260200161012f565b6101416203f48081565b61016261027e366004611406565b610f68565b610141601e81565b610141610299366004611718565b611120565b61014160035481565b600260205260009081526040902080546001820180549192916102c9906117aa565b80601f01602080910402602001604051908101604052809291908181526020018280546102f5906117aa565b80156103425780601f1061031757610100808354040283529160200191610342565b820191906000526020600020905b81548152906001019060200180831161032557829003601f168201915b50505050509080600201549080600301805461035d906117aa565b80601f0160208091040260200160405190810160405280929190818152602001828054610389906117aa565b80156103d65780601f106103ab576101008083540402835291602001916103d6565b820191906000526020600020905b8154815290600101906020018083116103b957829003601f168201915b5050505050908060040180546103eb906117aa565b80601f0160208091040260200160405190810160405280929190818152602001828054610417906117aa565b80156104645780601f1061043957610100808354040283529160200191610464565b820191906000526020600020905b81548152906001019060200180831161044757829003601f168201915b50505060058401546006850154600786015460088701546009880154600a9098015496976001600160a01b0390941696929550909350919060ff168b565b6000818152600260205260409020600781015442116105025760405162461bcd60e51b8152602060048201526017602482015276159bdd1a5b99c81c195c9a5bd9081b9bdd08195b991959604a1b60448201526064015b60405180910390fd5b600a81015460ff16156105535760405162461bcd60e51b8152602060048201526019602482015278141c9bdc1bdcd85b08185b1c9958591e48195e1958dd5d1959603a1b60448201526064016104f9565b600a8101805460ff1916600117905560098101546008820154600091610578916117fa565b905060008060009054906101000a90046001600160a01b03166001600160a01b03166318160ddd6040518163ffffffff1660e01b8152600401602060405180830381865afa1580156105ce573d6000803e3d6000fd5b505050506040513d601f19601f820116820180604052508101906105f2919061180d565b90506064610601601e83611826565b61060b919061183d565b8210158015610621575082600901548360080154115b156106fc57604080518082018252600b81526a1353d112519657d1d3d05360aa1b602090910152517fe20ec869cdee71c2db6e2c8f1cb475ccabb3a654d30e636f0e6e29aa71ca45df9061067990600186019061185f565b6040518091039020036106c157600283015460009081526001602081905260409091209081016106ac6003860182611924565b50600281016106be6004860182611924565b50505b6040516001815284907f948f4a9cd986f1118c3fbd459f7a22b23c0693e1ca3ef06a6a8be5aa7d39cc039060200160405180910390a2610733565b6040516000815284907f948f4a9cd986f1118c3fbd459f7a22b23c0693e1ca3ef06a6a8be5aa7d39cc039060200160405180910390a25b50505050565b600054604051634c0f8bf560e11b81523360048201526001600160a01b039091169063981f17ea90602401602060405180830381865afa92505050801561079d575060408051601f3d908101601f1916820190925261079a9181019061180d565b60015b6107b95760405162461bcd60e51b81526004016104f990611a05565b50600082815260026020526040902060078101544211156108165760405162461bcd60e51b8152602060048201526017602482015276159bdd1a5b99c81c195c9a5bd9081a185cc8195b991959604a1b60448201526064016104f9565b336000908152600b8201602052604090205460ff16156108685760405162461bcd60e51b815260206004820152600d60248201526c105b1c9958591e481d9bdd1959609a1b60448201526064016104f9565b600a81015460ff16156108b95760405162461bcd60e51b8152602060048201526019602482015278141c9bdc1bdcd85b08185b1c9958591e48195e1958dd5d1959603a1b60448201526064016104f9565b336000908152600b820160209081526040808320805460ff19908116600117909155600c8501909252909120805484158015919093161790556109125760088101805490600061090883611a4e565b919050555061092a565b60098101805490600061092483611a4e565b91905055505b60408051338152831515602082015284917ff2913dbe661ee2acc4a046d8fbcdc792373bda34c41c6086484b5345e5785e5f910160405180910390a2505050565b600054604051634c0f8bf560e11b81523360048201526001600160a01b039091169063981f17ea90602401602060405180830381865afa9250505080156109cf575060408051601f3d908101601f191682019092526109cc9181019061180d565b60015b6109eb5760405162461bcd60e51b81526004016104f990611a05565b5060008281526001602052604090206005810154421115610a485760405162461bcd60e51b8152602060048201526017602482015276159bdd1a5b99c81c195c9a5bd9081a185cc8195b991959604a1b60448201526064016104f9565b33600090815260098201602052604090205460ff1615610a9a5760405162461bcd60e51b815260206004820152600d60248201526c105b1c9958591e481d9bdd1959609a1b60448201526064016104f9565b600881015460ff1615610ae75760405162461bcd60e51b815260206004820152601560248201527411dbd85b08185b1c9958591e48195e1958dd5d1959605a1b60448201526064016104f9565b3360009081526009820160209081526040808320805460ff19908116600117909155600a850190925290912080548415801591909316179055610b365760068101805490600061090883611a4e565b60078101805490600061092483611a4e565b60008281526001602090815260408083206001600160a01b038516845260090190915290205460ff165b92915050565b600160208190526000918252604090912080549181018054610b99906117aa565b80601f0160208091040260200160405190810160405280929190818152602001828054610bc5906117aa565b8015610c125780601f10610be757610100808354040283529160200191610c12565b820191906000526020600020905b815481529060010190602001808311610bf557829003601f168201915b505050505090806002018054610c27906117aa565b80601f0160208091040260200160405190810160405280929190818152602001828054610c53906117aa565b8015610ca05780601f10610c7557610100808354040283529160200191610ca0565b820191906000526020600020905b815481529060010190602001808311610c8357829003601f168201915b5050506003840154600485015460058601546006870154600788015460089098015496976001600160a01b0390941696929550909350919060ff808216916101009004168a565b60606000805b600354811015610d5357600081815260016020526040902060080154610100900460ff168015610d2e575060008181526001602052604090206008015460ff165b15610d415781610d3d81611a4e565b9250505b80610d4b81611a4e565b915050610ced565b5060008167ffffffffffffffff811115610d6f57610d6f611611565b604051908082528060200260200182016040528015610d98578160200160208202803683370190505b5090506000805b600354811015610e2257600081815260016020526040902060080154610100900460ff168015610de0575060008181526001602052604090206008015460ff165b15610e1057808383610df181611a4e565b945081518110610e0357610e03611a67565b6020026020010181815250505b80610e1a81611a4e565b915050610d9f565b50909392505050565b60008054604051634c0f8bf560e11b81523360048201526001600160a01b039091169063981f17ea90602401602060405180830381865afa925050508015610e90575060408051601f3d908101601f19168201909252610e8d9181019061180d565b60015b610eac5760405162461bcd60e51b81526004016104f990611a05565b506003805460009182610ebe83611a4e565b9091555060008181526001602081905260409091208281559192508101610ee58682611a7d565b5060028101610ef48582611a7d565b506003810180546001600160a01b031916331790554260048201819055610f1f906203f480906117fa565b600582015560405182907f430af4bf45d1ad020a72d04208390ea169099f0c0f5a537ed7ccedb263b65c8b90610f589088903390611b37565b60405180910390a2509392505050565b600081815260016020526040902060058101544211610fc35760405162461bcd60e51b8152602060048201526017602482015276159bdd1a5b99c81c195c9a5bd9081b9bdd08195b991959604a1b60448201526064016104f9565b600881015460ff16156110105760405162461bcd60e51b815260206004820152601560248201527411dbd85b08185b1c9958591e48195e1958dd5d1959605a1b60448201526064016104f9565b60088101805460ff1916600117905560078101546006820154600091611035916117fa565b905060008060009054906101000a90046001600160a01b03166001600160a01b03166318160ddd6040518163ffffffff1660e01b8152600401602060405180830381865afa15801561108b573d6000803e3d6000fd5b505050506040513d601f19601f820116820180604052508101906110af919061180d565b905060646110be601e83611826565b6110c8919061183d565b8210610733578260070154836006015411156107335760088301805461ff00191661010017905560405184907f7d45b794300f6661257c02926bb9bb93a6fb64d6075a306838e95638c17a1c7f90600090a250505050565b60008054604051634c0f8bf560e11b81523360048201526001600160a01b039091169063981f17ea90602401602060405180830381865afa925050508015611185575060408051601f3d908101601f191682019092526111829181019061180d565b60015b6111a15760405162461bcd60e51b81526004016104f990611a05565b5060408051808201909152600b81526a1353d112519657d1d3d05360aa1b6020918201528551908601207fe20ec869cdee71c2db6e2c8f1cb475ccabb3a654d30e636f0e6e29aa71ca45df1480611241575060408051808201909152600d81526c10d3d3541311551157d1d3d053609a1b6020918201528551908601207fa616b8673877f99adda91f6d094fc13f3d92c05fb632006d997457f1dbad5977145b6112855760405162461bcd60e51b8152602060048201526015602482015274496e76616c69642070726f706f73616c207479706560581b60448201526064016104f9565b60408051808201909152600d81526c10d3d3541311551157d1d3d053609a1b6020918201528551908601207f59e94798c78806652256e092f6b03ec0c26d3fa049cdff92668ba80e2452a6890161133457600084815260016020526040902060080154610100900460ff166113345760405162461bcd60e51b815260206004820152601560248201527411dbd85b081b5d5cdd08189948185c1c1c9bdd9959605a1b60448201526064016104f9565b600480546000918261134583611a4e565b9091555060008181526002602052604090208181559091506001810161136b8882611a7d565b5060028101869055600381016113818682611a7d565b50600481016113908582611a7d565b506005810180546001600160a01b0319163317905542600682018190556113bb906203f480906117fa565b600782015560405182907fc8c078bfee58e5822588f08b4509ed1eb5058e03f666cca84dd2d44bf5c288a8906113f4908a903390611b37565b60405180910390a25095945050505050565b60006020828403121561141857600080fd5b5035919050565b6000815180845260005b8181101561144557602081850181015186830182015201611429565b506000602082860101526020601f19601f83011685010191505092915050565b60006101608d835280602084015261147f8184018e61141f565b90508b60408401528281036060840152611499818c61141f565b905082810360808401526114ad818b61141f565b6001600160a01b039990991660a0840152505060c081019590955260e085019390935261010084019190915261012083015215156101409091015295945050505050565b6000806040838503121561150457600080fd5b823591506020830135801515811461151b57600080fd5b809150509250929050565b6000806040838503121561153957600080fd5b8235915060208301356001600160a01b038116811461151b57600080fd5b60006101408c83528060208401526115718184018d61141f565b90508281036040840152611585818c61141f565b6001600160a01b039a909a1660608401525050608081019690965260a086019490945260c085019290925260e084015215156101008301521515610120909101529392505050565b6020808252825182820181905260009190848201906040850190845b81811015611605578351835292840192918401916001016115e9565b50909695505050505050565b634e487b7160e01b600052604160045260246000fd5b600082601f83011261163857600080fd5b813567ffffffffffffffff8082111561165357611653611611565b604051601f8301601f19908116603f0116810190828211818310171561167b5761167b611611565b8160405283815286602085880101111561169457600080fd5b836020870160208301376000602085830101528094505050505092915050565b600080604083850312156116c757600080fd5b823567ffffffffffffffff808211156116df57600080fd5b6116eb86838701611627565b9350602085013591508082111561170157600080fd5b5061170e85828601611627565b9150509250929050565b6000806000806080858703121561172e57600080fd5b843567ffffffffffffffff8082111561174657600080fd5b61175288838901611627565b955060208701359450604087013591508082111561176f57600080fd5b61177b88838901611627565b9350606087013591508082111561179157600080fd5b5061179e87828801611627565b91505092959194509250565b600181811c908216806117be57607f821691505b6020821081036117de57634e487b7160e01b600052602260045260246000fd5b50919050565b634e487b7160e01b600052601160045260246000fd5b80820180821115610b7257610b726117e4565b60006020828403121561181f57600080fd5b5051919050565b8082028115828204841417610b7257610b726117e4565b60008261185a57634e487b7160e01b600052601260045260246000fd5b500490565b600080835461186d816117aa565b60018281168015611885576001811461189a576118c9565b60ff19841687528215158302870194506118c9565b8760005260208060002060005b858110156118c05781548a8201529084019082016118a7565b50505082870194505b50929695505050505050565b601f82111561191f57600081815260208120601f850160051c810160208610156118fc5750805b601f850160051c820191505b8181101561191b57828155600101611908565b5050505b505050565b81810361192f575050565b61193982546117aa565b67ffffffffffffffff81111561195157611951611611565b6119658161195f84546117aa565b846118d5565b6000601f82116001811461199957600083156119815750848201545b600019600385901b1c1916600184901b1784556119fe565b600085815260209020601f19841690600086815260209020845b838110156119d357828601548255600195860195909101906020016119b3565b50858310156119f15781850154600019600388901b60f8161c191681555b50505060018360011b0184555b5050505050565b60208082526029908201527f4d757374206f776e206120436c61756465204d696e692053425420746f20706160408201526872746963697061746560b81b606082015260800190565b600060018201611a6057611a606117e4565b5060010190565b634e487b7160e01b600052603260045260246000fd5b815167ffffffffffffffff811115611a9757611a97611611565b611aa58161195f84546117aa565b602080601f831160018114611ada5760008415611ac25750858301515b600019600386901b1c1916600185901b17855561191b565b600085815260208120601f198616915b82811015611b0957888601518255948401946001909101908401611aea565b5085821015611b275787850151600019600388901b60f8161c191681555b5050505050600190811b01905550565b604081526000611b4a604083018561141f565b905060018060a01b0383166020830152939250505056fea2646970667358221220310e0dbe5f6baba5845150a82dc149c461f14d7434fbfe7bf634f22f2197ced264736f6c63430008140033",
  "linkReferences": {},
  "deployedLinkReferences": {}
}